{
  "contractName": "ProductManagement",
  "abi": [
    {
      "constant": true,
      "inputs": [
        {
          "name": "",
          "type": "bytes32"
        }
      ],
      "name": "products",
      "outputs": [
        {
          "name": "manufacturer",
          "type": "address"
        },
        {
          "name": "serial_number",
          "type": "string"
        },
        {
          "name": "product_type",
          "type": "string"
        },
        {
          "name": "creation_date",
          "type": "string"
        }
      ],
      "payable": false,
      "stateMutability": "view",
      "type": "function",
      "signature": "0x79054391"
    },
    {
      "constant": true,
      "inputs": [
        {
          "name": "",
          "type": "bytes32"
        }
      ],
      "name": "parts",
      "outputs": [
        {
          "name": "manufacturer",
          "type": "address"
        },
        {
          "name": "serial_number",
          "type": "string"
        },
        {
          "name": "part_type",
          "type": "string"
        },
        {
          "name": "creation_date",
          "type": "string"
        },
        {
          "name": "expiry_date",
          "type": "string"
        },
        {
          "name": "product_price",
          "type": "string"
        },
        {
          "name": "selling_date",
          "type": "string"
        }
      ],
      "payable": false,
      "stateMutability": "view",
      "type": "function",
      "signature": "0x8c431b9f"
    },
    {
      "inputs": [],
      "payable": false,
      "stateMutability": "nonpayable",
      "type": "constructor",
      "signature": "constructor"
    },
    {
      "constant": false,
      "inputs": [
        {
          "name": "serial_number",
          "type": "string"
        },
        {
          "name": "part_type",
          "type": "string"
        },
        {
          "name": "creation_date",
          "type": "string"
        },
        {
          "name": "expiry_date",
          "type": "string"
        },
        {
          "name": "product_price",
          "type": "string"
        },
        {
          "name": "selling_date",
          "type": "string"
        }
      ],
      "name": "buildPart",
      "outputs": [
        {
          "name": "",
          "type": "bytes32"
        }
      ],
      "payable": false,
      "stateMutability": "nonpayable",
      "type": "function",
      "signature": "0x3074d2ef"
    },
    {
      "constant": false,
      "inputs": [
        {
          "name": "p_hash",
          "type": "bytes32"
        },
        {
          "name": "sdate",
          "type": "string"
        },
        {
          "name": "creation_date",
          "type": "string"
        },
        {
          "name": "part_array",
          "type": "bytes32[6]"
        }
      ],
      "name": "setSellDate",
      "outputs": [
        {
          "name": "",
          "type": "bytes32"
        }
      ],
      "payable": false,
      "stateMutability": "nonpayable",
      "type": "function",
      "signature": "0x0959ea88"
    },
    {
      "constant": false,
      "inputs": [
        {
          "name": "serial_number",
          "type": "string"
        },
        {
          "name": "product_type",
          "type": "string"
        },
        {
          "name": "creation_date",
          "type": "string"
        },
        {
          "name": "part_array",
          "type": "bytes32[6]"
        }
      ],
      "name": "buildProduct",
      "outputs": [
        {
          "name": "",
          "type": "bytes32"
        }
      ],
      "payable": false,
      "stateMutability": "nonpayable",
      "type": "function",
      "signature": "0xd2af2aec"
    },
    {
      "constant": false,
      "inputs": [
        {
          "name": "product_hash",
          "type": "bytes32"
        }
      ],
      "name": "getParts",
      "outputs": [
        {
          "name": "",
          "type": "bytes32[6]"
        }
      ],
      "payable": false,
      "stateMutability": "nonpayable",
      "type": "function",
      "signature": "0x6e730329"
    }
  ],
  "bytecode": "0x608060405234801561001057600080fd5b50612200806100206000396000f3fe608060405260043610610078576000357c0100000000000000000000000000000000000000000000000000000000900463ffffffff1680633074d2ef1461007d5780636e7303291461044c57806379054391146104c35780638c431b9f14610682578063d2af2aec14610985578063dc36696914610bd1575b600080fd5b34801561008957600080fd5b50610436600480360360c08110156100a057600080fd5b81019080803590602001906401000000008111156100bd57600080fd5b8201836020820111156100cf57600080fd5b803590602001918460018302840111640100000000831117156100f157600080fd5b91908080601f016020809104026020016040519081016040528093929190818152602001838380828437600081840152601f19601f8201169050808301925050505050505091929192908035906020019064010000000081111561015457600080fd5b82018360208201111561016657600080fd5b8035906020019184600183028401116401000000008311171561018857600080fd5b91908080601f016020809104026020016040519081016040528093929190818152602001838380828437600081840152601f19601f820116905080830192505050505050509192919290803590602001906401000000008111156101eb57600080fd5b8201836020820111156101fd57600080fd5b8035906020019184600183028401116401000000008311171561021f57600080fd5b91908080601f016020809104026020016040519081016040528093929190818152602001838380828437600081840152601f19601f8201169050808301925050505050505091929192908035906020019064010000000081111561028257600080fd5b82018360208201111561029457600080fd5b803590602001918460018302840111640100000000831117156102b657600080fd5b91908080601f016020809104026020016040519081016040528093929190818152602001838380828437600081840152601f19601f8201169050808301925050505050505091929192908035906020019064010000000081111561031957600080fd5b82018360208201111561032b57600080fd5b8035906020019184600183028401116401000000008311171561034d57600080fd5b91908080601f016020809104026020016040519081016040528093929190818152602001838380828437600081840152601f19601f820116905080830192505050505050509192919290803590602001906401000000008111156103b057600080fd5b8201836020820111156103c257600080fd5b803590602001918460018302840111640100000000831117156103e457600080fd5b91908080601f016020809104026020016040519081016040528093929190818152602001838380828437600081840152601f19601f820116905080830192505050505050509192919290505050610cb7565b6040518082815260200191505060405180910390f35b34801561045857600080fd5b506104856004803603602081101561046f57600080fd5b8101908080359060200190929190505050610f12565b6040518082600660200280838360005b838110156104b0578082015181840152602081019050610495565b5050505090500191505060405180910390f35b3480156104cf57600080fd5b506104fc600480360360208110156104e657600080fd5b810190808035906020019092919050505061104e565b604051808573ffffffffffffffffffffffffffffffffffffffff1673ffffffffffffffffffffffffffffffffffffffff168152602001806020018060200180602001848103845287818151815260200191508051906020019080838360005b8381101561057657808201518184015260208101905061055b565b50505050905090810190601f1680156105a35780820380516001836020036101000a031916815260200191505b50848103835286818151815260200191508051906020019080838360005b838110156105dc5780820151818401526020810190506105c1565b50505050905090810190601f1680156106095780820380516001836020036101000a031916815260200191505b50848103825285818151815260200191508051906020019080838360005b83811015610642578082015181840152602081019050610627565b50505050905090810190601f16801561066f5780820380516001836020036101000a031916815260200191505b5097505050505050505060405180910390f35b34801561068e57600080fd5b506106bb600480360360208110156106a557600080fd5b8101908080359060200190929190505050611266565b604051808873ffffffffffffffffffffffffffffffffffffffff1673ffffffffffffffffffffffffffffffffffffffff16815260200180602001806020018060200180602001806020018060200187810387528d818151815260200191508051906020019080838360005b83811015610741578082015181840152602081019050610726565b50505050905090810190601f16801561076e5780820380516001836020036101000a031916815260200191505b5087810386528c818151815260200191508051906020019080838360005b838110156107a757808201518184015260208101905061078c565b50505050905090810190601f1680156107d45780820380516001836020036101000a031916815260200191505b5087810385528b818151815260200191508051906020019080838360005b8381101561080d5780820151818401526020810190506107f2565b50505050905090810190601f16801561083a5780820380516001836020036101000a031916815260200191505b5087810384528a818151815260200191508051906020019080838360005b83811015610873578082015181840152602081019050610858565b50505050905090810190601f1680156108a05780820380516001836020036101000a031916815260200191505b50878103835289818151815260200191508051906020019080838360005b838110156108d95780820151818401526020810190506108be565b50505050905090810190601f1680156109065780820380516001836020036101000a031916815260200191505b50878103825288818151815260200191508051906020019080838360005b8381101561093f578082015181840152602081019050610924565b50505050905090810190601f16801561096c5780820380516001836020036101000a031916815260200191505b509d505050505050505050505050505060405180910390f35b34801561099157600080fd5b50610bbb60048036036101208110156109a957600080fd5b81019080803590602001906401000000008111156109c657600080fd5b8201836020820111156109d857600080fd5b803590602001918460018302840111640100000000831117156109fa57600080fd5b91908080601f016020809104026020016040519081016040528093929190818152602001838380828437600081840152601f19601f82011690508083019250505050505050919291929080359060200190640100000000811115610a5d57600080fd5b820183602082011115610a6f57600080fd5b80359060200191846001830284011164010000000083111715610a9157600080fd5b91908080601f016020809104026020016040519081016040528093929190818152602001838380828437600081840152601f19601f82011690508083019250505050505050919291929080359060200190640100000000811115610af457600080fd5b820183602082011115610b0657600080fd5b80359060200191846001830284011164010000000083111715610b2857600080fd5b91908080601f016020809104026020016040519081016040528093929190818152602001838380828437600081840152601f19601f8201169050808301925050505050505091929192908060c001906006806020026040519081016040528092919082600660200280828437600081840152601f19601f8201169050808301925050505050509192919290505050611658565b6040518082815260200191505060405180910390f35b348015610bdd57600080fd5b50610ca160048036036040811015610bf457600080fd5b810190808035906020019092919080359060200190640100000000811115610c1b57600080fd5b820183602082011115610c2d57600080fd5b80359060200191846001830284011164010000000083111715610c4f57600080fd5b91908080601f016020809104026020016040519081016040528093929190818152602001838380828437600081840152601f19601f8201169050808301925050505050505091929192905050506119a2565b6040518082815260200191505060405180910390f35b600080610cc9338989898989896119d4565b9050600073ffffffffffffffffffffffffffffffffffffffff1660008083815260200190815260200160002060000160009054906101000a900473ffffffffffffffffffffffffffffffffffffffff1673ffffffffffffffffffffffffffffffffffffffff16141515610da4576040517f08c379a00000000000000000000000000000000000000000000000000000000081526004018080602001828103825260148152602001807f5061727420494420616c7265616479207573656400000000000000000000000081525060200191505060405180910390fd5b610dac611f63565b60e0604051908101604052803373ffffffffffffffffffffffffffffffffffffffff1681526020018a81526020018981526020018881526020018781526020018681526020018581525090508060008084815260200190815260200160002060008201518160000160006101000a81548173ffffffffffffffffffffffffffffffffffffffff021916908373ffffffffffffffffffffffffffffffffffffffff1602179055506020820151816001019080519060200190610e6e929190611fb7565b506040820151816002019080519060200190610e8b929190611fb7565b506060820151816003019080519060200190610ea8929190611fb7565b506080820151816004019080519060200190610ec5929190611fb7565b5060a0820151816005019080519060200190610ee2929190611fb7565b5060c0820151816006019080519060200190610eff929190611fb7565b5090505081925050509695505050505050565b610f1a612037565b600073ffffffffffffffffffffffffffffffffffffffff166001600084815260200190815260200160002060000160009054906101000a900473ffffffffffffffffffffffffffffffffffffffff1673ffffffffffffffffffffffffffffffffffffffff1614151515610ff5576040517f08c379a00000000000000000000000000000000000000000000000000000000081526004018080602001828103825260128152602001807f50726f6475637420696e6578697374656e74000000000000000000000000000081525060200191505060405180910390fd5b60016000838152602001908152602001600020600401600680602002604051908101604052809291908260068015611042576020028201915b81548152602001906001019080831161102e575b50505050509050919050565b60016020528060005260406000206000915090508060000160009054906101000a900473ffffffffffffffffffffffffffffffffffffffff1690806001018054600181600116156101000203166002900480601f0160208091040260200160405190810160405280929190818152602001828054600181600116156101000203166002900480156111205780601f106110f557610100808354040283529160200191611120565b820191906000526020600020905b81548152906001019060200180831161110357829003601f168201915b505050505090806002018054600181600116156101000203166002900480601f0160208091040260200160405190810160405280929190818152602001828054600181600116156101000203166002900480156111be5780601f10611193576101008083540402835291602001916111be565b820191906000526020600020905b8154815290600101906020018083116111a157829003601f168201915b505050505090806003018054600181600116156101000203166002900480601f01602080910402602001604051908101604052809291908181526020018280546001816001161561010002031660029004801561125c5780601f106112315761010080835404028352916020019161125c565b820191906000526020600020905b81548152906001019060200180831161123f57829003601f168201915b5050505050905084565b60006020528060005260406000206000915090508060000160009054906101000a900473ffffffffffffffffffffffffffffffffffffffff1690806001018054600181600116156101000203166002900480601f0160208091040260200160405190810160405280929190818152602001828054600181600116156101000203166002900480156113385780601f1061130d57610100808354040283529160200191611338565b820191906000526020600020905b81548152906001019060200180831161131b57829003601f168201915b505050505090806002018054600181600116156101000203166002900480601f0160208091040260200160405190810160405280929190818152602001828054600181600116156101000203166002900480156113d65780601f106113ab576101008083540402835291602001916113d6565b820191906000526020600020905b8154815290600101906020018083116113b957829003601f168201915b505050505090806003018054600181600116156101000203166002900480601f0160208091040260200160405190810160405280929190818152602001828054600181600116156101000203166002900480156114745780601f1061144957610100808354040283529160200191611474565b820191906000526020600020905b81548152906001019060200180831161145757829003601f168201915b505050505090806004018054600181600116156101000203166002900480601f0160208091040260200160405190810160405280929190818152602001828054600181600116156101000203166002900480156115125780601f106114e757610100808354040283529160200191611512565b820191906000526020600020905b8154815290600101906020018083116114f557829003601f168201915b505050505090806005018054600181600116156101000203166002900480601f0160208091040260200160405190810160405280929190818152602001828054600181600116156101000203166002900480156115b05780601f10611585576101008083540402835291602001916115b0565b820191906000526020600020905b81548152906001019060200180831161159357829003601f168201915b505050505090806006018054600181600116156101000203166002900480601f01602080910402602001604051908101604052809291908181526020018280546001816001161561010002031660029004801561164e5780601f106116235761010080835404028352916020019161164e565b820191906000526020600020905b81548152906001019060200180831161163157829003601f168201915b5050505050905087565b600080600090505b600681101561176257600073ffffffffffffffffffffffffffffffffffffffff16600080858460068110151561169257fe5b6020020151815260200190815260200160002060000160009054906101000a900473ffffffffffffffffffffffffffffffffffffffff1673ffffffffffffffffffffffffffffffffffffffff1614151515611755576040517f08c379a000000000000000000000000000000000000000000000000000000000815260040180806020018281038252601f8152602001807f496e6578697374656e7420706172742075736564206f6e2070726f647563740081525060200191505060405180910390fd5b8080600101915050611660565b60006117a3338888886020604051908101604052806000815250602060405190810160405280600081525060206040519081016040528060008152506119d4565b9050600073ffffffffffffffffffffffffffffffffffffffff166001600083815260200190815260200160002060000160009054906101000a900473ffffffffffffffffffffffffffffffffffffffff1673ffffffffffffffffffffffffffffffffffffffff1614151561187f576040517f08c379a00000000000000000000000000000000000000000000000000000000081526004018080602001828103825260178152602001807f50726f6475637420494420616c7265616479207573656400000000000000000081525060200191505060405180910390fd5b61188761205a565b60a0604051908101604052803373ffffffffffffffffffffffffffffffffffffffff168152602001898152602001888152602001878152602001868152509050806001600084815260200190815260200160002060008201518160000160006101000a81548173ffffffffffffffffffffffffffffffffffffffff021916908373ffffffffffffffffffffffffffffffffffffffff160217905550602082015181600101908051906020019061193e929190611fb7565b50604082015181600201908051906020019061195b929190611fb7565b506060820151816003019080519060200190611978929190611fb7565b506080820151816004019060066119909291906120a7565b50905050819350505050949350505050565b60008160008085815260200190815260200160002060060190805190602001906119cd9291906120e7565b5092915050565b600080886c010000000000000000000000000290506060889050606088905060608890506060889050606088905060608890506060815183518551875189518b51601460ff160101010101016040519080825280601f01601f191660200182016040528015611a525781602001600182028038833980820191505090505b5090506060819050600080905060008090505b601460ff16811015611af3578a81601481101515611a7f57fe5b1a7f0100000000000000000000000000000000000000000000000000000000000000028383806001019450815181101515611ab657fe5b9060200101907effffffffffffffffffffffffffffffffffffffffffffffffffffffffffffff1916908160001a9053508080600101915050611a65565b600090505b8951811015611bab578981815181101515611b0f57fe5b9060200101517f010000000000000000000000000000000000000000000000000000000000000090047f0100000000000000000000000000000000000000000000000000000000000000028383806001019450815181101515611b6e57fe5b9060200101907effffffffffffffffffffffffffffffffffffffffffffffffffffffffffffff1916908160001a9053508080600101915050611af8565b600090505b8851811015611c63578881815181101515611bc757fe5b9060200101517f010000000000000000000000000000000000000000000000000000000000000090047f0100000000000000000000000000000000000000000000000000000000000000028383806001019450815181101515611c2657fe5b9060200101907effffffffffffffffffffffffffffffffffffffffffffffffffffffffffffff1916908160001a9053508080600101915050611bb0565b600090505b8751811015611d1b578781815181101515611c7f57fe5b9060200101517f010000000000000000000000000000000000000000000000000000000000000090047f0100000000000000000000000000000000000000000000000000000000000000028383806001019450815181101515611cde57fe5b9060200101907effffffffffffffffffffffffffffffffffffffffffffffffffffffffffffff1916908160001a9053508080600101915050611c68565b600090505b8651811015611dd3578681815181101515611d3757fe5b9060200101517f010000000000000000000000000000000000000000000000000000000000000090047f0100000000000000000000000000000000000000000000000000000000000000028383806001019450815181101515611d9657fe5b9060200101907effffffffffffffffffffffffffffffffffffffffffffffffffffffffffffff1916908160001a9053508080600101915050611d20565b600090505b8551811015611e8b578581815181101515611def57fe5b9060200101517f010000000000000000000000000000000000000000000000000000000000000090047f0100000000000000000000000000000000000000000000000000000000000000028383806001019450815181101515611e4e57fe5b9060200101907effffffffffffffffffffffffffffffffffffffffffffffffffffffffffffff1916908160001a9053508080600101915050611dd8565b600090505b8451811015611f43578481815181101515611ea757fe5b9060200101517f010000000000000000000000000000000000000000000000000000000000000090047f0100000000000000000000000000000000000000000000000000000000000000028383806001019450815181101515611f0657fe5b9060200101907effffffffffffffffffffffffffffffffffffffffffffffffffffffffffffff1916908160001a9053508080600101915050611e90565b82805190602001209b505050505050505050505050979650505050505050565b60e060405190810160405280600073ffffffffffffffffffffffffffffffffffffffff1681526020016060815260200160608152602001606081526020016060815260200160608152602001606081525090565b828054600181600116156101000203166002900490600052602060002090601f016020900481019282601f10611ff857805160ff1916838001178555612026565b82800160010185558215612026579182015b8281111561202557825182559160200191906001019061200a565b5b5090506120339190612167565b5090565b60c060405190810160405280600690602082028038833980820191505090505090565b61014060405190810160405280600073ffffffffffffffffffffffffffffffffffffffff1681526020016060815260200160608152602001606081526020016120a161218c565b81525090565b82600681019282156120d6579160200282015b828111156120d55782518255916020019190600101906120ba565b5b5090506120e391906121af565b5090565b828054600181600116156101000203166002900490600052602060002090601f016020900481019282601f1061212857805160ff1916838001178555612156565b82800160010185558215612156579182015b8281111561215557825182559160200191906001019061213a565b5b5090506121639190612167565b5090565b61218991905b8082111561218557600081600090555060010161216d565b5090565b90565b60c060405190810160405280600690602082028038833980820191505090505090565b6121d191905b808211156121cd5760008160009055506001016121b5565b5090565b9056fea165627a7a72305820b857834452c1be0e7b549a5dd0e886fcb4468a655626938f6383ef223d90c8180029",
  "source": "pragma solidity >=0.4.21 <0.6.0;\n\ncontract ProductManagement {\n    struct Part{\n        address manufacturer;\n        string serial_number;\n        string part_type;\n        string creation_date;\n        string expiry_date;\n        string product_price;\n        string selling_date;\n    }\n\n    struct Product{\n        address manufacturer;\n        string serial_number;\n        string product_type;\n        string creation_date;\n        bytes32[6] parts;\n    }\n\n    mapping(bytes32 => Part) public parts;\n    mapping(bytes32 => Product) public products;\n\n    constructor() public {\n    }\n\n    function concatenateInfoAndHash(address a1, string memory s1, string memory s2, string memory s3, string memory s4, string memory s5,string memory s6) private returns (bytes32){\n        //First, get all values as bytes\n        bytes20 b_a1 = bytes20(a1);\n        bytes memory b_s1 = bytes(s1);\n        bytes memory b_s2 = bytes(s2);\n        bytes memory b_s3 = bytes(s3);\n        bytes memory b_s4 = bytes(s4);\n        bytes memory b_s5 = bytes(s5);\n        bytes memory b_s6 = bytes(s6);\n        //Then calculate and reserve a space for the full string\n        string memory s_full = new string(b_a1.length + b_s1.length + b_s2.length + b_s3.length + b_s4.length + b_s5.length + b_s6.length);\n        bytes memory b_full = bytes(s_full);\n        uint j = 0;\n        uint i;\n        for(i = 0; i < b_a1.length; i++){\n            b_full[j++] = b_a1[i];\n        }\n        for(i = 0; i < b_s1.length; i++){\n            b_full[j++] = b_s1[i];\n        }\n        for(i = 0; i < b_s2.length; i++){\n            b_full[j++] = b_s2[i];\n        }\n        for(i = 0; i < b_s3.length; i++){\n            b_full[j++] = b_s3[i];\n        }\n        for(i = 0; i < b_s4.length; i++){\n            b_full[j++] = b_s4[i];\n        }\n        for(i = 0; i < b_s5.length; i++){\n            b_full[j++] = b_s5[i];\n        }\n        for(i = 0; i < b_s6.length; i++){\n            b_full[j++] = b_s6[i];\n        }\n\n        //Hash the result and return\n        return keccak256(b_full);\n    }\n\n    function buildPart(string memory serial_number, string memory part_type, string memory creation_date, string memory expiry_date, string memory product_price, string memory selling_date) public returns (bytes32){\n        //Create hash for data and check if it exists. If it doesn't, create the part and return the ID to the user\n        bytes32 part_hash = concatenateInfoAndHash(msg.sender, serial_number, part_type, creation_date, expiry_date, product_price,selling_date);\n        \n        require(parts[part_hash].manufacturer == address(0), \"Part ID already used\");\n\n        Part memory new_part = Part(msg.sender, serial_number, part_type, creation_date, expiry_date, product_price, selling_date);\n        parts[part_hash] = new_part;\n        return part_hash;\n    }\n\n    function setSellDate(bytes32 p_hash, string memory sdate) public returns (bytes32){\n        //Create hash for data and check if it exists. If it doesn't, create the part and return the ID to the user\n        parts[p_hash].selling_date = sdate;\n    }\n\n    function buildProduct(string memory serial_number, string memory product_type, string memory creation_date, bytes32[6] memory part_array) public returns (bytes32){\n        //Check if all the parts exist, hash values and add to product mapping.\n        uint i;\n        for(i = 0;i < part_array.length; i++){\n            require(parts[part_array[i]].manufacturer != address(0), \"Inexistent part used on product\");\n        }\n\n        //Create hash for data and check if exists. If it doesn't, create the part and return the ID to the user\n        bytes32 product_hash = concatenateInfoAndHash(msg.sender, serial_number, product_type, creation_date, \"\",\"\",\"\");\n        \n        require(products[product_hash].manufacturer == address(0), \"Product ID already used\");\n\n        Product memory new_product = Product(msg.sender, serial_number, product_type, creation_date, part_array);\n        products[product_hash] = new_product;\n        return product_hash;\n    }\n\n    function getParts(bytes32 product_hash) public returns (bytes32[6] memory){\n        //The automatic getter does not return arrays, so lets create a function for that\n        require(products[product_hash].manufacturer != address(0), \"Product inexistent\");\n        return products[product_hash].parts;\n    }\n}\n",
  "sourcePath": "/home/praseetha/project/test/contracts/ProductManagement.sol",
  "compiler": {
    "name": "solc",
    "version": "0.5.0+commit.1d4f565a.Emscripten.clang"
  },
  "schemaVersion": "3.0.8",
  "updatedAt": "2019-05-21T14:03:22.575Z",
  "devdoc": {
    "methods": {}
  },
  "userdoc": {
    "methods": {}
  }
}